:020000021000EC
:10F000000C9472F80C9492F80C9492F80C9492F878
:10F010000C9492F80C9492F80C9492F80C9492F848
:10F020000C9492F80C9492F80C9492F80C9492F838
:10F030000C9492F80C9492F80C9492F80C9492F828
:10F040000C9492F80C9492F80C9492F80C9492F818
:10F050000C9492F80C9492F80C9492F80C9492F808
:10F060000C9492F80C9492F80C9492F80C9492F8F8
:10F070000C9492F80C9492F80C9492F80C9492F8E8
:10F080000C9492F80C9492F80C9492F80C9492F8D8
:10F090000C9492F80C9492F80C9492F80C9492F8C8
:10F0A0000C9492F80C9492F80C9492F80C9492F8B8
:10F0B0000C9492F80C9492F80C9492F80C9492F8A8
:10F0C0000C9492F80C9492F80C9492F80C9492F898
:10F0D0000C9492F80C9492F80C9492F80C9492F888
:10F0E0000C9492F811241FBECFEFD1E2DEBFCDBF4A
:10F0F00012E0A0E0B2E0E2E4FEEF01E00BBF02C0EC
:10F1000007900D92A833B107D9F71BBE13E0A8E30F
:10F11000B2E001C01D92A334B107E1F70E94F9F9F2
:10F120000C941FFF0C9400F8982F95959595959544
:10F130009595905D8F708A301CF1282F295A809107
:10F140003802813019F0823071F008958091C0004A
:10F1500085FFFCCF9093C6008091C00085FFFCCF57
:10F160002093C60008958091C80085FFFCCF90933E
:10F17000CE008091C80085FFFCCF2093CE0008957B
:10F18000282F205DDCCF982F80913802813019F034
:10F19000823041F008958091C00085FFFCCF9093AC
:10F1A000C60008958091C80085FFFCCF9093CE00E3
:10F1B0000895EF92FF920F931F9380913802813050
:10F1C00069F1823031F080E01F910F91FF90EF9054
:10F1D0000895EE24FF2487018091C80087FD17C0A1
:10F1E0000894E11CF11C011D111D81E4E81682E464
:10F1F000F8068FE0080780E0180770F3E0913A0204
:10F20000F0913B0209958091C80087FFE9CF80917A
:10F21000CE001F910F91FF90EF900895EE24FF24F0
:10F2200087018091C00087FD17C00894E11CF11C84
:10F23000011D111D81E4E81682E4F8068FE008073D
:10F2400080E0180770F3E0913A02F0913B020995D3
:10F250008091C00087FFE9CF8091C6001F910F9178
:10F26000FF90EF9008950E94D9F8982F809138026E
:10F27000813049F0823091F091366CF490330CF08B
:10F280009053892F08958091C00085FFFCCF909303
:10F29000C60091369CF39755892F08958091C80038
:10F2A00085FFFCCF9093CE00E7CF1F930E9433F9E8
:10F2B000182F0E9433F91295107F810F1F91089526
:10F2C000982F20913802992339F0213031F02230E3
:10F2D00061F091509923C9F708958091C00087FF8C
:10F2E000FCCF8091C6009150F5CF8091C80087FF78
:10F2F000FCCF8091CE009150EDCF1F93182F0E942C
:10F30000D9F8803249F0809139028F5F80933902B9
:10F31000853091F11F910895809138028130B9F0C4
:10F320008230C1F78091C80085FFFCCF84E18093D3
:10F33000CE008091C80085FFFCCF1093CE00809155
:10F34000C80085FFFCCF80E18093CE00E3CF8091A1
:10F35000C00085FFFCCF84E18093C6008091C0008F
:10F3600085FFFCCF1093C6008091C00085FFFCCFC5
:10F3700080E18093C600CECFE0913A02F0913B024B
:10F3800009951F9108950E94D9F8803241F080912B
:10F3900039028F5F80933902853029F10895809179
:10F3A0003802813089F08230C9F78091C80085FF2A
:10F3B000FCCF84E18093CE008091C80085FFFCCF14
:10F3C00080E18093CE0008958091C00085FFFCCF3E
:10F3D00084E18093C6008091C00085FFFCCF80E16E
:10F3E0008093C6000895E0913A02F0913B0209959E
:10F3F00008952F923F924F925F926F927F928F92D9
:10F400009F92AF92BF92CF92DF92EF92FF920F93B3
:10F410001F93CF93DF93000081E08093380280E157
:10F420008093C4001092C5001092C00086E08093C3
:10F43000C20088E18093C1006898709A64E1E62E6A
:10F440005EE1D52E47E9C42E33E0B32E20E1A22E93
:10F450009924939491E4892E86E5782E02E5602E16
:10F4600010E2512EB9E44B2EA3E53A2EF0E52F2EF3
:10F470000E94D9F88033C9F1813309F452C0803435
:10F4800009F4C8C0813409F4EAC0823489F18534B2
:10F4900009F4CAC0803549F1823539F1813529F145
:10F4A000853509F4ECC0863509F409C1843609F4C0
:10F4B00028C1843709F4ABC1853709F473C2863794
:10F4C00009F4D9C0813209F4B7C2809139028F5F43
:10F4D00080933902853061F6E0913A02F0913B0267
:10F4E00009950E94D9F8803339F60E94C3F9C0CF3C
:10F4F0002091380293E105C0223061F09923A9F3ED
:10F5000091502130C9F78091C00087FFFCCF8091D6
:10F51000C600F4CF8091C80087FFFCCF8091CE0059
:10F52000EDCF0E94D9F8803281F680913802813087
:10F53000D1F1823009F09CCF8091C80085FFFCCFCB
:10F54000E092CE008091C80085FFFCCF8092CE0073
:10F550008091C80085FFFCCF7092CE008091C800DA
:10F5600085FFFCCF6092CE008091C80085FFFCCF64
:10F570005092CE008091C80085FFFCCF4092CE0013
:10F580008091C80085FFFCCF3092CE008091C800EA
:10F5900085FFFCCF2092CE008091C80085FFFCCF74
:10F5A000A092CE0065CF8091C00085FFFCCFE09295
:10F5B000C6008091C00085FFFCCF8092C60080917C
:10F5C000C00085FFFCCF7092C6008091C00085FF0F
:10F5D000FCCF6092C6008091C00085FFFCCF5092A6
:10F5E000C6008091C00085FFFCCF4092C60080918C
:10F5F000C00085FFFCCF3092C6008091C00085FF1F
:10F60000FCCF2092C6008091C00085FFFCCFA09265
:10F61000C6002ECF0E94D9F8863808F466CF0E9423
:10F62000D9F80E94C3F924CF2091380294E0213008
:10F6300041F0223069F0992309F457CF91502130DD
:10F64000C1F78091C00087FFFCCF8091C600F3CF47
:10F650008091C80087FFFCCF8091CE00ECCF0E9444
:10F66000D9F8803841F1813809F447C0823809F46B
:10F67000CAC08839E1F080E00E947DF9F9CE0E948D
:10F68000D9F880933C020E94D9F880933D020E94F1
:10F69000C3F9EECE0E94D9F80E94D9F8182F0E9423
:10F6A000D9F8112309F47CC2113009F408C283E0AF
:10F6B0000E947DF9DDCE82E00E947DF9D9CE0E94C4
:10F6C000D9F8803339F32091380292E0213039F0B3
:10F6D000223061F0992379F291502130C9F780915D
:10F6E000C00087FFFCCF8091C600F4CF8091C80096
:10F6F00087FFFCCF8091CE00EDCF81E00E947DF9A5
:10F70000B7CE0E94D9F880933F030E94D9F8809326
:10F710003E03809142038E7F809342030E94D9F87A
:10F72000853409F4B1C180913E0390913F03892B48
:10F7300089F000E010E00E94D9F8F801E25CFD4F8A
:10F7400080830F5F1F4F80913E0390913F03081706
:10F75000190788F30E94D9F8803209F0B6CE80915B
:10F76000420380FFB0C140913C0250913D02440FE2
:10F77000551F50933D0240933C0260913E037091AF
:10F780003F0361157105F1F080E090E09A01280FC8
:10F79000391FFC01E25CFD4FE081F999FECF1FBAF1
:10F7A00032BD21BDE0BD0FB6F894FA9AF99A0FBEAA
:10F7B00001968617970750F3460F571F50933D0247
:10F7C00040933C0280913802813081F0823009F010
:10F7D0004FCE8091C80085FFFCCFE092CE00809193
:10F7E000C80085FFFCCFA092CE0042CE8091C00021
:10F7F00085FFFCCFE092C6008091C00085FFFCCF62
:10F80000A092C60035CE80E10E947DF931CE0E94E3
:10F81000D9F880933F030E94D9F880933E0320914A
:10F820003C0230913D0237FD44C1809142038D7FFF
:10F8300080934203220F331F30933D0220933C02FA
:10F840000E94D9F8853409F42EC1809142038E7F3D
:10F85000809342030E94D9F8803209F009CE60916A
:10F860003802613009F46FC0623009F473C000914E
:10F870003E0310913F030115110509F440C080912A
:10F880004203782F7170F82EF69481E0F8224091AF
:10F890003C0250913D0220E030E013C0FF2009F00F
:10F8A00060C0FA019491613009F43BC0623009F400
:10F8B00041C0CA0101962F5F3F4FAC0120173107AD
:10F8C000D0F4772359F3F999FECF52BD41BDF89A90
:10F8D00090B56130F9F0623061F78091C80085FF22
:10F8E000FCCF9093CE00CA0101962F5F3F4FAC0131
:10F8F0002017310730F390933D0280933C02613032
:10F9000009F4C8C0623009F0B3CD8091C80085FF0A
:10F91000FCCF46CE8091C00085FFFCCF9093C600FF
:10F92000C8CF8091C00085FDF9CF8091C00085FFD0
:10F93000F8CFF4CF8091C80085FDD3CF8091C80067
:10F9400085FFF8CFCECF8091C00085FFFCCFE0923D
:10F95000C6008DCF8091C80085FFFCCFE092CE001D
:10F9600086CFCA01A0E0B0E080509040AF4FBF4FBB
:10F97000ABBFFC019791613061F0623009F099CF23
:10F980008091C80085FDADCF8091C80085FFF8CF7C
:10F99000A8CF8091C00085FDC1CF8091C00085FFB8
:10F9A000F8CFBCCF0E94D9F8803209F08ECD80917B
:10F9B0003802813011F1823009F05ACD8091C800AF
:10F9C00085FFFCCFE092CE008091C80085FFFCCF80
:10F9D000D092CE008091C80085FFFCCFC092CE00AF
:10F9E0008091C80085FFFCCFB092CE008091C80006
:10F9F00085FFFCCFA092CE003BCD8091C00085FF5B
:10FA0000FCCFE092C6008091C00085FFFCCFD09271
:10FA1000C6008091C00085FFFCCFC092C6008091D7
:10FA2000C00085FFFCCFB092C6008091C00085FF6A
:10FA3000FCCFA092C6001CCD0E94D9F8813209F0FB
:10FA400017CD0E94D9F8813209F012CD10924003EF
:10FA500020913802E1E491E00EC0223009F4A4C004
:10FA600090934003E92FF0E0E050FE4FE0819F5F6C
:10FA7000EE2309F4A0C0213081F78091C00085FFFA
:10FA8000FCCFE093C600ECCF80914203816080936D
:10FA9000420349CE8091C00085FDB9CD8091C00060
:10FAA00085FFF8CFB4CD80914203816080934203FB
:10FAB000D1CE80914203826080934203BBCE87E91E
:10FAC0000E947DF9D5CC80913D028823880F880B58
:10FAD0008921809341038BBF80913C0290913D022C
:10FAE000880F991F90933D0280933C0280913E03C2
:10FAF00080FF09C080913E0390913F03019690934F
:10FB00003F0380933E03F894F999FECF1127E091CB
:10FB10003C02F0913D02CEE3D2E080913E03909111
:10FB20003F03103091F40091570001700130D9F378
:10FB300003E000935700E8950091570001700130F1
:10FB4000D9F301E100935700E895099019900091CD
:10FB5000570001700130D9F301E000935700E89598
:10FB60001395103898F0112700915700017001305B
:10FB7000D9F305E000935700E89500915700017014
:10FB80000130D9F301E100935700E89532960297CE
:10FB900009F0C7CF103011F00296E5CF112412CE34
:10FBA0008EE10E947DF964CC8091C80085FFFCCF76
:10FBB000E093CE0055CF5AE0B52E4DE0A42E3AE3A7
:10FBC000932E90E2892E8DE3782E213009F43FC0E8
:10FBD000223009F45CC00E94D9F8982F2091380295
:10FBE000213071F1223009F44BC0923709F4B7C0CB
:10FBF000973709F465C0953799F0923609F499C0A2
:10FC00009A3619F7E0913A02F0913B02099520915A
:10FC10003802DBCF8091C00085FFFCCF9093C600F7
:10FC20000E94D9F8982F80913802813099F3823060
:10FC3000B9F78091C80085FFFCCF9093CE00F0CF3C
:10FC40008091C00085FFFCCF9093C600CECF8091FD
:10FC5000C00085FFFCCFB092C6008091C00085FF38
:10FC6000FCCFA092C6008091C00085FFFCCF90928F
:10FC7000C6008091C00085FFFCCF8092C600ABCF4C
:10FC80008091C80085FFFCCF9093CE00AECF8091CD
:10FC9000C80085FFFCCFB092CE008091C80085FFE0
:10FCA000FCCFA092CE008091C80085FFFCCF90923F
:10FCB000CE008091C80085FFFCCF8092CE008BCF14
:10FCC0000E94D9F8982F809138028130E9F0823073
:10FCD00009F474C00E9455F9082F0E9455F9182F95
:10FCE0000E94D9F8982F809138028130A1F082309B
:10FCF000C9F00E9455F9D02ECC24F601E10FF11D78
:10FD000080832091380261CF8091C00085FFFCCFB5
:10FD10009093C600DFCF8091C00085FFFCCF909309
:10FD2000C600E7CF8091C80085FFFCCF9093CE003E
:10FD3000E0CF213009F46DC0223009F446C080E8DC
:10FD400085BF109274001092750080E091E1FC0173
:10FD5000819180E091E13097D1F3CF01F8CF0E94FB
:10FD6000D9F8982F809138028130D1F0823009F48F
:10FD700042C00E9455F9182F0E9455F9982F809182
:10FD800038028130A1F08230E9F1F12EEE24F70142
:10FD9000E90FF11D80810E9494F82091380215CF5F
:10FDA0008091C00085FFFCCF9093C600E2CF809188
:10FDB000C00085FFFCCF7092C600E7CF8091C800DD
:10FDC00085FFFCCF9093CE0085CF8091C80085FF42
:10FDD000FCCF82E68093CE008091C80085FFFCCFE7
:10FDE00085E78093CE008091C80085FFFCCF83E734
:10FDF0008093CE00A4CF8091C80085FFFCCF909364
:10FE0000CE00B7CF8091C80085FFFCCF7092CE00A6
:10FE1000BCCF8091C00085FFFCCF82E68093C600F6
:10FE20008091C00085FFFCCF85E78093C60080915C
:10FE3000C00085FFFCCF83E78093C60080CFF89495
:02FE4000FFCFF2
:10FE420041546D656761424F4F54202F20417264C7
:10FE520075696E6F204D656761202D20284329202A
:10FE620041726475696E6F204C4C43202D203039ED
:08FE7200303933300A0D008025
:040000031000F000F9
:00000001FF
